:080003003099FDC2998F99228A
:1007750075985053890F438920758DFDD28ED29976
:010785002251
:06073E008B788A79897AAC
:10074400E4FEAB78AA79A97A8E8275830012026BD3
:09075400FF60061200030E80E9AB
:01075D002279
:10043300206D730D0A0053582043484F4E20203A35
:10044300005358204E4F4920424F5420203A005326
:1004530058204348454E20203A005358205175698F
:10046300636B536F727420203A00011A1C52062CDE
:100473001E3532635B3F284A245C32452452446371
:100483004A10490F5005364F331E5432565112034A
:100493003C6329195D5D012434395B3F452A352BC3
:1004A3005710452152101F17421D05261133562799
:1004B300471320241C0D346241371D202C3B0D4D66
:0E04C3005E541F5E163D0353302018233B4548
:04079700027E0000DE
:0A066C00C28C7D057C00AF7FAE7EDE
:040676008C708D7186
:10067A008E728F73E4F574F575F576757764E577A0
:10068A006401457660537576007577017574007557
:10069A007501D3E5759571E57495705019AE76AF0D
:1006AA00777C007D0A1202BA8E768F770575E5751A
:1006BA0070E0057480DCAC76AD77AE72AF7312026F
:1006CA00CC7C007D0A1202CCED2430FF120003E537
:1006DA0071157170A9157080A57BFF7A04793302B0
:0206EA00073EC9
:100786005389F0438901D2A9D2AF758CFB758AC310
:010796002240
:0A0370008B708A7189728C738D7492
:10037A00E4F579F57AC3E57A9574E5736480F8E56E
:10038A00796480984003020432857975857A76E526
:10039A007A2401F578E43579F577C3E5789574E53B
:1003AA00736480F8E5776480985035AB70AA71A9B8
:1003BA007285788285778312026BFF8576828575CE
:1003CA008312026BFED3EF6480F8EE6480984006D5
:1003DA008577758578760578E57870BE057780BA71
:0C03EA00E576657A7004E5756579602E93
:1003F600AB70AA71A972857A8285798312026BF530
:100406007B85768285758312026B857A82857983F0
:0E041600120298857682857583E57B12029826
:0E042400057AE57A600302037F057902037F03
:0104320022A7
:0A055D008B708A7189728C738D74A3
:10056700E4F575F576E57424FFFFE57334FFFEC304
:10057700E5769FE5759E5066D3EF9576EE957540C7
:1005870053AB70AA71A97274FF2FF58274FF3EF501
:100597008312026BFD8F828E8312026BFCC3ED64A4
:0805A70080F8EC6480985025F7
:1005AF008C7774FF2FF58274FF3EF58312026B8FE9
:1005BF00828E8312029874FF2FF58274FF3EF583AB
:0505CF00E5771202981F
:1005D400EF1F70A71E80A40576E576708B057580E5
:0105E400878F
:0105E50022F3
:0A000E008B708A7189728C738D74F7
:10001800E5742576FFE5733575FE7C007D021203D5
:10002800218F828E8312026BFF3395E0F5778F78EC
:1000380085737985747A85757B85767CD3E57A9521
:100048007CE57B6480F8E5796480984003020118B8
:10005800AB70AA71A972857A8285798312026BFFC7
:100068003395E0FEC3EF9578E5776480F8EE648019
:1000780098500A057AE57A70D7057980D3AB70AACB
:1000880071A972857C82857B8312026BFF3395E0B0
:10009800FED3EF9578E5776480F8EE648098400A9F
:1000A800E57C157C70D7157B80D3D3E57A957CE504
:1000B8007B6480F8E5796480985081C3E57A957C03
:0C00C800E57B6480F8E579648098502E98
:1000D400AB70AA71A972857A8285798312026BF555
:1000E4007D857C82857B8312026B857A8285798308
:0E00F400120298857C82857B83E57D1202983E
:10010200057AE57A70020579E57C157C60030200C8
:1001120044157B020044C3E574957CE57B6480F85A
:10012200E5736480985013AB70AA71A972857B75D0
:10013200857C76AD74AC7312000EC3E57A9576E5D4
:10014200756480F8E5796480985013AB70AA71A940
:0E01520072857575857676AD7AAC7912000EE1
:01016000227C
:0A05E6008B708A7189728C738D741A
:1005F000757500757601C3E5769574E5759573504C
:100600006AAF76AE75D3EF9400EE94004053AB70B2
:10061000AA71A97274FF2FF58274FF3EF58312024E
:100620006BFD8F828E8312026BFCC3ED6480F8EC4D
:050630006480985025D4
:100635008C7774FF2FF58274FF3EF58312026B8F62
:10064500828E8312029874FF2FF58274FF3EF58324
:05065500E57712029898
:10065A00EF1F70A71E80A40576E576708F0575805A
:01066A008B04
:01066B00226C
:10016100E4F508F509F50A750B647573FF757404F8
:1001710075756D850A76850B77FB7A00790C120609
:10018100EC1207751207867BFF7A04793912073E54
:10019100758CFB758AC3D28C7B007A00790CAD0B10
:1001A100AC0A12037012066C7BFF7A0479441207C1
:1001B1003EE4F57EF57F758CFB758AC3D28C757331
:1001C100FF75740475756D850A76850B77FB7A006A
:1001D100790C1206EC7B007A00790CAD0BAC0A129B
:1001E100055D12066C7BFF7A04795212073EE4F535
:1001F1007EF57F758CFB758AC3D28C7573FF757420
:100201000475756DF576757764FB7A00790C1206C5
:10021100EC7B007A00790CAD0BAC0A1205E61206F4
:100221006C7BFF7A04795D12073EE4F57EF57F75FC
:100231008CFB758AC3D28C7573FF75740475756DEB
:10024100F576757764FB7A00790C1206EC7B007AFF
:1002510000790CE50B24FFF576E50A34FFF575E42A
:0A026100FDFC12000E12066C80FE78
:03000B0002075E8B
:10075E00C0E0C28C758CFB758AC3057FE57F700285
:07076E00057ED28CD0E032C1
:030000000204D126
:0C04D100787FE4F6D8FD75817F020518E5
:10026B00BB010CE58229F582E5833AF583E0225048
:10027B0006E92582F8E622BBFE06E92582F8E22292
:0D028B00E58229F582E5833AF583E49322AC
:10029800F8BB010DE58229F582E5833AF583E8F09C
:1002A800225006E92582C8F622BBFE05E92582C848
:0202B800F22230
:1002BA00EF8DF0A4A8F0CF8CF0A428CE8DF0A42E58
:0202CA00FE2212
:1002CC00BC000BBE0029EF8DF084FFADF022E4CC16
:1002DC00F875F008EF2FFFEE33FEEC33FCEE9DECDF
:1002EC00984005FCEE9DFE0FD5F0E9E4CEFD22ED25
:1002FC00F8F5F0EE8420D21CFEADF075F008EF2F6F
:10030C00FFED33FD4007985006D5F0F222C398FD5F
:05031C000FD5F0EA22FC
:10032100C2D5EC30E709B2D5E4C39DFDE49CFCEEF7
:1003310030E715B2D5E4C39FFFE49EFE1202CCC3A1
:10034100E49DFDE49CFC80031202CC30D507C3E49C
:060351009FFFE49EFE2266
:1006EC008B708A718972E4F578F579E5771577AEB8
:1006FC0076700215764E6033AB73AA74A97512032B
:10070C0057FFAB70AA71A9720579E579AC787002C4
:10071C00057814F5828C83EF120298EF60CD74018A
:10072C002575F575E43574F57480C0AB70AA71A9A4
:02073C00722227
:1004DD00020161E493A3F8E493A34003F68001F2D3
:1004ED0008DFF48029E493A3F85407240CC8C33320
:1004FD00C4540F4420C8834004F456800146F6DFEF
:10050D00E4800B0102040810204080900797E47EE0
:10051D00019360BCA3FF543F30E509541FFEE493E3
:10052D00A360010ECF54C025E060A840B8E493A3AA
:10053D00FAE493A3F8E493A3C8C582C8CAC583CAD5
:10054D00F0A3C8C582C8CAC583CADFE9DEE780BE8D
:01079B00005D
:10035700BB010689828A83E0225002E722BBFE02A4
:09036700E32289828A83E49322D7
:00000001FF
